{
    "network" : "BTC",
    "txid" : "406b2b06bcd34d3c8733e6b79f7a394c8a431fbf4ff5ac705c93f4076bb77602",
    "blockhash" : "000000000000a966409cb51cdbeada173e3299f8152bc323b9fe504d9601a7bf",
    "block_no" : 110286,
    "confirmations" : 330231,
    "time" : 1298610128,
    "version" : 1,
    "locktime" : 0,
    "sent_value" : "0.06000000",
    "fee" : "0.01000000",
    "inputs" : [
      {
        "input_no" : 0,
        "address" : "16TJws3i5CtEFTEse7QJ6xnysc7fGFF41Z",
        "value" : "0.06000000",
        "received_from" : {
          "txid" : "4974d995c0291573caa216d538f2d79f27fe4f9fa351314e2c21b554dbdfd87f",
          "output_no" : 1
        },
        "script_asm" : "3045022100b6a7fe5eea81894bbdd0df61043e42780543457fa5581ac1af023761a098e92202201d4752785be5f9d1b9f8d362b8cf3b05e298a78c4abff874b838bb500dcf2a1201 042e3c4aeac1ffb1c86ce3621afb1ca92773e02badf0d4b1c836eb26bd27d0c2e59ffec3d6ab6b8bbeca81b0990ab5224ebdd73696c4255d1d0c6b3c518a1a053e",
        "script_hex" : "483045022100b6a7fe5eea81894bbdd0df61043e42780543457fa5581ac1af023761a098e92202201d4752785be5f9d1b9f8d362b8cf3b05e298a78c4abff874b838bb500dcf2a120141042e3c4aeac1ffb1c86ce3621afb1ca92773e02badf0d4b1c836eb26bd27d0c2e59ffec3d6ab6b8bbeca81b0990ab5224ebdd73696c4255d1d0c6b3c518a1a053e"
      }
    ],
    "outputs" : [
      {
        "output_no" : 0,
        "address" : "1M5fwzMYiindTMESo21drJf5hmkbVTdmdh",
        "value" : "0.05000000",
        "type" : "pubkeyhash",
        "req_sigs" : 1,
        "spent" : {
          "txid" : "c99c49da4c38af669dea436d3e73780dfdb6c1ecf9958baa52960e8baee30e73",
          "input_no" : 0
        },
        "script_asm" : "OP_DUP OP_HASH160 dc44b1164188067c3a32d4780f5996fa14a4f2d9 OP_EQUALVERIFY OP_CHECKSIG",
        "script_hex" : "76a914dc44b1164188067c3a32d4780f5996fa14a4f2d988ac"
      }
    ],
    "tx_hex" : "01000000017fd8dfdb54b5212c4e3151a39f4ffe279fd7f238d516a2ca731529c095d97449010000008b483045022100b6a7fe5eea81894bbdd0df61043e42780543457fa5581ac1af023761a098e92202201d4752785be5f9d1b9f8d362b8cf3b05e298a78c4abff874b838bb500dcf2a120141042e3c4aeac1ffb1c86ce3621afb1ca92773e02badf0d4b1c836eb26bd27d0c2e59ffec3d6ab6b8bbeca81b0990ab5224ebdd73696c4255d1d0c6b3c518a1a053effffffff01404b4c00000000001976a914dc44b1164188067c3a32d4780f5996fa14a4f2d988ac00000000"
  }