{
"network" : "BTC",
"txid" : "0e1b5688cf179cd9f7cbda1fac0090f6e684bbf8cd946660120197c3f3681809",
"blockhash" : "00000000001164bba8bc2a6195fc993f8b2549328fadd1687d9ebbb40d2bc7c1",
"block_no" : 90121,
"confirmations" : 350386,
"time" : 1289102600,
"version" : 1,
"locktime" : 0,
"sent_value" : "50.00000000",
"fee" : "0.0",
"inputs" : [
  {
    "input_no" : 0,
    "address" : "1NXX6ncGXVuNczS59mFGsZqefDU42CnJvg",
    "value" : "50.00000000",
    "received_from" : {
      "txid" : "6ca7ec7b1847f6bdbd737176050e6a08d66ccd55bb94ad24f4018024107a5827",
      "output_no" : 0
    },
    "script_asm" : "304502201b822ad10d6adc1a341ae8835be3f70a25201bbff31f59cbb9c5353a5f0eca18022100ea7b2f7074e9aa9cf70aa8d0ffee13e6b45dddabf1ab961bda378bcdb778fa4701",
    "script_hex" : "48304502201b822ad10d6adc1a341ae8835be3f70a25201bbff31f59cbb9c5353a5f0eca18022100ea7b2f7074e9aa9cf70aa8d0ffee13e6b45dddabf1ab961bda378bcdb778fa4701"
  }
],
"outputs" : [
  {
    "output_no" : 0,
    "address" : "1Q183Tg192FSAKhNfAk5tNFmSchpTRqPdf",
    "value" : "50.00000000",
    "type" : "pubkeyhash",
    "req_sigs" : 1,
    "spent" : {
      "txid" : "04fc18bfb73d4180b67f12eb22702a1f43f1016b4290505f5d90b3aa9edfc462",
      "input_no" : 3
    },
    "script_asm" : "OP_DUP OP_HASH160 fc50c5907d86fed474ba5ce8b12a66e0a4c139d8 OP_EQUALVERIFY OP_CHECKSIG",
    "script_hex" : "76a914fc50c5907d86fed474ba5ce8b12a66e0a4c139d888ac"
  }
],
"tx_hex" : "010000000127587a10248001f424ad94bb55cd6cd6086a0e05767173bdbdf647187beca76c000000004948304502201b822ad10d6adc1a341ae8835be3f70a25201bbff31f59cbb9c5353a5f0eca18022100ea7b2f7074e9aa9cf70aa8d0ffee13e6b45dddabf1ab961bda378bcdb778fa4701ffffffff0100f2052a010000001976a914fc50c5907d86fed474ba5ce8b12a66e0a4c139d888ac00000000"
 }